:1000000086EF01F00650016A055C03E205C000F0CE
:100010000CD0006A080E076E053600360650005CEC
:10002000D8B0006E0136072EF7D7C0EF01F08E0E64
:10003000006E07C001F006C002F0036A015209E138
:1000400002C001F0026A080E005E015202E1006A7D
:1000500008D0D89001BE04D0023601360006F9D788
:10006000019EC4EF01F0800ED8B20B1A106A116A1B
:1000700007C00FF00B500F1A0650D8B4DCD00E6E2C
:10008000006E0A50D8B4E0D00E5ED8B481D03DE303
:100090000BC014F0148E0CC013F00DC012F0116AD6
:1000A000D89014321332123211320E2EF8D70FAE0E
:1000B00003D01080DDD010900E901088EA6A090EEF
:1000C000E96EE9D010980FBE0AD00EA013D01432FA
:1000D000133212321132002AD8B4C5D00BD014BE5C
:1000E0000CD0D89011361236133614360006D8B418
:1000F000BAD0F5D7108C6BD0109C07C00FF007AEAC
:1001000002D0148EA9D0149EA7D00AC00EF00AC047
:1001100000F006500E5E07C014F0148E08C013F0F5
:1001200009C012F0116AD89014321332123211320F
:100130000E2EF8D70FAE03D010829AD010920E90E8
:10014000108AEA6A0D0EE96EA6D0109A0FBE0AD088
:100150000EA013D01432133212321132002AD8B446
:1001600082D00BD014BE0CD0D89011361236133674
:1001700014360006D8B477D0F5D7108E28D0109E4C
:100180000BC00FF00BAE02D0148E66D0149E64D05C
:100190000BC014F0148E0CC013F00DC012F00FAE93
:1001A00004D0149E108464D01094116A0E90EA6AF0
:1001B000090EE96E70D00FBE1CD007C00FF00EA064
:1001C00006D01432133212321132002A4CE011AE32
:1001D0000BD0122A09E1132A07E1142A05E114328F
:1001E00013321232002A3FE010BC86D710BEC7D7A8
:1001F0001CD0800E141A14AE04D03AD00BC00FF0ED
:100200000AD007C00FF0145206E1135204E1125253
:1002100002E1006A21D014BE08D0D89011361236FF
:1002200013361436002EF7D71ED00FAE02D0148E20
:1002300013D0149E11D00AC000F00BC014F00CC0F3
:1002400013F00DC012F008D006C000F007C014F083
:1002500008C013F009C012F014C001F013C002F07E
:1002600012C003F034D0006A016A026A036A2FD018
:10027000116A121E131E141E111E112A05E1122AE4
:1002800003E1132A01E1142A10B015D710B256D792
:1002900010B48AD7B3D7EF50122605E3132A03E12F
:1002A000142AD8B40E80ED52EF50132603E3142A1B
:1002B000D8B40E80ED52EF50EFBE01D0800A142664
:1002C000D8B00E8010B8FED610BA3FD774D7D6EF8C
:1002D00001F08E0E006E0550005E06C002F007C0F1
:1002E00001F0028E005209E0D890025202E1015260
:1002F00004E002320132002EF7D706AE05D0011E0F
:10030000021E012AD8B4022ADFEF01F0F86AD09E5B
:10031000046AC150C00B0F09C16E070EB46E300ED7
:10032000D36ED350010E926E000E946E946A8B6A57
:10033000C050C00B0709C06EC09EC280C150C00B28
:100340000E09C16E94928B920C0EBA6E000E0609C5
:10035000CA6E9C0ECB6E0C0EBB6E000E016EC250B0
:10036000C30B0110C26E00D000D000D0C282C2B256
:10037000FED7C4CF04F004C005F0210E066E42D6AD
:10038000076A01C006F053D6D89203C009F002C034
:1003900008F001C007F000C006F09A0E0D6E990E2D
:1003A0000C6E790E0B6E810E0A6E5DD603C008F0DE
:1003B00002C007F001C006F000C005F08AD701C0F6
:0A03C00004F004C0BBFFC9D703001E
:020000040030CA
:0E00000027C8381E0087A1000FC00FE00F4078
:00000001FF
;PIC18F4550
;CRC=61D2  CREATED="29-Oca-22 16:39"
